:020000040800F2
:1000000018440020850D0008E10D0008E10D0008EE
:10001000E10D0008E10D0008E10D000800000000FE
:10002000000000000000000000000000F53900089A
:10003000E10D000800000000F53A0008393B000817
:10004000E10D0008E10D0008E10D0008E10D0008D8
:10005000E10D0008E10D0008E10D0008E10D0008C8
:10006000E10D0008E10D0008E10D0008E10D0008B8
:10007000612D0008E10D0008E10D0008E10D000808
:10008000E10D0008E10D0008E10D0008E10D000898
:10009000E10D0008E10D0008E10D0008E10D000888
:1000A000E10D0008E10D0008E10D0008E10D000878
:1000B000352D0008E10D0008E10D0008E10D0008F4
:1000C000E10D0008E10D0008E10D0008E10D000858
:1000D000E10D0008E10D0008E10D0008E10D000848
:1000E000E10D0008E10D0008E10D0008E10D000838
:1000F000E10D0008E10D0008E10D0008E10D000828
:10010000E10D0008E10D0008E10D0008E10D000817
:10011000E10D0008E10D0008E10D0008E10D000807
:10012000E10D0008E10D0008E10D0008E10D0008F7
:100130005FF808F190B585B000AF04460846114657
:100140001A462346FB710346BB710B46BB80134620
:10015000FB70FB79082B01D9FF23E6E0BB79022B6A
:1001600013D0042B11D0012B0DD107F10C034FF448
:1001700070601946042202F0A5FAFB68002B01D139
:10018000FD23D2E001E0FB23CFE000BFFB7803F0CA
:100190000403002B01D0FA23C7E0FB78002B24D006
:1001A000BB79012B02D0022B08D01EE0FB7803F0B4
:1001B0002103002B01D1FA23B7E016E0FB7803F00E
:1001C0002003002B05D0FB785BB2002B01DBFA2368
:1001D000ABE0FB7803F01003002B05D0FB785BB29B
:1001E000002B01DBFA23A0E000BFFB79184600F0EA
:1001F000ABF8FB799B000133DB001946FB7823F059
:100200000F03DAB2BB791343DBB2DBB208461946FF
:1002100002F002FABB88002B10D1464B1B885A1CF7
:1002200091B2444A1180BB80424B1B884FF6F0725A
:10023000934203D13F4B4FF440421A80FB799B001D
:100240000133DB0003F580631A46BB881B0A9BB2AF
:10025000DBB21046194602F0DFF9FB799B0001334F
:10026000DB0003F5A0631A46BB88DBB210461946D3
:1002700002F0D2F9FB799B000133DB0003F58073B8
:100280001846012102F0C8F900BFFB799B00013339
:10029000DB0003F58073184602F06AF90346002B71
:1002A000F3D1FB79012202FA03F39BB2DB439AB24A
:1002B000214B1B889BB213409BB29AB21E4B1A80F3
:1002C000FB7803F00102FB7902FA03F39AB21A4BAE
:1002D0001B889BB213439BB29AB2174B1A80FB79CF
:1002E000012202FA03F39BB2DB439AB2134B1B8841
:1002F0009BB213409BB29AB2104B1A80FB79104A02
:10030000002122F81310FB790E4A0021D15400BFBE
:10031000FB799B000133DB0003F54073184602F0C4
:1003200027F90346002BF3D0FB795BB2184614374C
:10033000BD4690BD00000020BC040020BE0400208B
:10034000C0040020D004002080B582B000AF034676
:10035000FB71FB79082B01D9FF2355E0FB799B004A
:100360000133DB0003F580731846102102F054F9C5
:1003700000BFFB799B000133DB0003F58073184657
:1003800002F0F6F80346002BF3D1FB799B00013312
:10039000DB0003F5007318461F2102F03DF9FB79DD
:1003A000012202FA03F39BB2DB439AB2194B1B887A
:1003B0009BB213409BB29AB2164B1A80FB79012272
:1003C00002FA03F39BB2DB439AB2134B1B889BB236
:1003D00013409BB29AB2104B1A80FB790F4A00214E
:1003E00022F81310FB790E4A0021D15400BFFB798B
:1003F0009B000133DB0003F54073184602F0B8F8A8
:100400000346002BF3D101235BB218460837BD46E3
:1004100080BD00BFBC040020BE040020C00400203A
:10042000D004002080B582B000AF0346FB71FB7999
:10043000082B01D9FF2352E0FB799B000133DB003D
:10044000184602F095F8034603F00F03012B01D084
:10045000FB2344E0FB799B000133DB0003F5407391
:10046000184602F085F80346132B01D0FD2336E031
:10047000FB799B000133DB0003F5807318460221F2
:1004800002F0CAF800BFFB799B000133DB0003F5E3
:100490008073184602F06CF80346002BF3D111E08C
:1004A000FB799B000133DB0003F58073184602F0F3
:1004B0005FF80346002B05D1FB791846FFF744FF90
:1004C000FC230CE0FB799B000133DB0003F5407358
:1004D000184602F04DF80346142BE1D101235BB21C
:1004E00018460837BD4680BD80B582B000AF0346D0
:1004F000FB71FB79082B01D9FF2361E0FB799B009D
:100500000133DB00184602F033F8034603F00F0313
:10051000012B01D0FB2353E0FB799B000133DB006F
:1005200003F580731846082102F076F800BFFB79C6
:100530009B000133DB0003F58073184602F018F8C6
:100540000346002BF3D1FB79012202FA03F39BB29D
:10055000DB439AB21D4B1B889BB213409BB29AB2ED
:100560001A4B1A801A4B1B881A46FB7942FA03F37E
:1005700003F00103002B01D0002321E013E0FB79FD
:100580009B000133DB0003F50073184601F0F0FF18
:10059000034603F00803002B05D0FB791846FFF74C
:1005A000D3FEF3230CE0FB799B000133DB0003F562
:1005B0004073184601F0DCFF0346002BDFD1012316
:1005C0005BB218460837BD4680BD00BFBE040020A0
:1005D000BC04002090B585B000AF03463960FB71C4
:1005E0001346BB800023FB730023BB81FB79082BE0
:1005F00002D94FF0FF339CE0FB799B000133DB0015
:10060000184601F0B5FF034603F00F03012B02D09B
:100610006FF004038DE0BB88002B02D16FF00D0357
:1006200087E0FB799B000133DB0003F5F0531846AC
:1006300001F09EFF03469BB29B02BB81BA89BB8837
:100640009A4201D2BB89BB80FB79184602F056F969
:100650000346BB81FB799B000133DB0003F540734C
:10066000184601F085FF0346FB73FB7B172B27D051
:10067000FB7B1C2B1DD1BB89002B00D034E0FB7908
:10068000184602F0EFF803461C46FB799B00013345
:10069000DB0003F5F853184601F06AFF03469B029E
:1006A0009C420DD1FB791846FFF74EFE6FF0060312
:1006B0003FE0FB791846FFF747FE6FF0060338E08E
:1006C0001E4B1B881A46FB7942FA03F303F0010321
:1006D000002B04D0BB89002B01D1002329E0BB896A
:1006E000002B00D000E0AFE7BA89BB889A4201D264
:1006F000BB89BB80FA79BB88104639681A4602F07C
:1007000049F9FB799B000133DB0003F58073184640
:10071000402101F081FF00BFFB799B000133DB002A
:1007200003F58073184601F023FF0346002BF3D135
:10073000BB8818461437BD4690BD00BFBC040020DE
:1007400080B586B000AF4FF40010012101F0F2FE39
:100750000920012101F0D0FEC023BB820323BB7519
:100760001C23FB7507F114030F48194600F03CFBEE
:1007700000233B814BF6FF737B81A023BB814FF4A9
:100780008063FB814FF480433B82084B7B603B1DC1
:100790000748194603F006FD0548012103F0C4FD92
:1007A0001837BD4680BD00BF000C0140A086010087
:1007B0000054004080B582B000AF78600B467B806B
:1007C00013463B8000BF39484FF4003103F098FED8
:1007D0000346002BF7D13548012103F0C5FD00BFCA
:1007E0003248334903F05CFE0346002BF8D02F4813
:1007F000A021002203F036FE00BF2C482D4903F053
:100800004FFE0346002BF8D07B88DBB22748194601
:1008100003F00AFE00BF2548274903F041FE0346C6
:10082000002BF8D02148012103F09EFD00BF1F4896
:100830001F4903F035FE0346002BF8D01B48A021CA
:10084000012203F00FFE00BF18481C4903F028FEE8
:100850000346002BF8D01EE03B88012B07D113483C
:10086000002103F0C1FD1148012103F09DFD0F4857
:10087000134903F015FE0346002B0CD00B4803F080
:10088000E3FD03461A467B681A707B6801337B6080
:100890003B88013B3B803B88002BDDD10348012195
:1008A00003F0A2FD0837BD4680BD00BF00540040E4
:1008B000010003008200070084000700020003001B
:1008C0004000030080B586B000AF0420012101F094
:1008D00013FE4FF48040012101F00EFE0423FB754E
:1008E0004FF48063BB820323BB7507F114031548E3
:1008F000194600F079FA1823FB754FF40073BB8298
:100900000323BB7507F114030E48194600F06CFA77
:100910004FF4E1337B6000233B820C23FB810023F7
:10092000BB8100237B8100233B813B1D0648194688
:1009300002F024FE0448012102F0DAFE1837BD4619
:1009400080BD00BF000801400038014080B582B082
:1009500000AF4020012101F0CFFD1023FB710123E6
:10096000BB800323BB713B1D0848194600F03CFACD
:100970001023FB710223BB800323BB713B1D034883
:10098000194600F031FA0837BD4680BD0018014015
:10099000F0B585B004AF304801F02AF92E4B1B7832
:1009A0001E462D4B5B781D462B4B9B781C462A4BD5
:1009B000DB781946284B1B791A46274B5B79009147
:1009C00001920293254831462A46234601F05AFCFB
:1009D000214B9B791946204BDB791A461E4B1B7A1B
:1009E0001C461D4B5B7A00931D48234601F04AFCD0
:1009F000194B9B7A1946184BDB7A1A46164B1B7B10
:100A00001C46154B5B7B00931648234601F03AFCCD
:100A1000114B9B7B1946104BDB7B1A460E4B1B7C04
:100A20001C460D4B5B7C00930F48234601F02AFCCB
:100A3000094B9B7C1946084BDB7C1A46064B1B7DF9
:100A40001C46054B5B7D00930848234601F01AFCC9
:100A50000437BD46F0BD00BF18000020CC48000898
:100A6000FC480008184900083449000850490008AB
:100A700080B485B000AF786039600023FB817B686B
:100A80001B88FB817B682E4A934213D07B682D4ADA
:100A900093420FD07B68B3F1804F0BD07B682A4A1A
:100AA000934207D07B68294A934203D07B68284A47
:100AB000934208D1FB8923F07003FB813B685A887D
:100AC000FB891343FB817B68224A93420CD07B68ED
:100AD000214A934208D0FB8923F44073FB813B6891
:100AE000DA88FB891343FB817B68FA891A803B68AB
:100AF0009A887B689A853B681A887B681A857B6828
:100B00000F4A93420FD07B680E4A93420BD07B680A
:100B1000124A934207D07B68114A934203D07B6804
:100B2000104A934204D13B681B7A9AB27B681A86BA
:100B30007B6801229A821437BD465DF8047B7047BA
:100B4000002C014000340140000400400008004037
:100B5000000C004000100040001400400040014024
:100B6000004401400048014080B483B000AF786089
:100B70000B46FB70FB78002B08D07B681B889BB270
:100B800043F001039AB27B681A8007E07B681B88F8
:100B90009BB223F001039AB27B681A800C37BD46E2
:100BA0005DF8047B704700BF80B483B000AF78600D
:100BB0000B467B8013467B707B78002B08D07B68CC
:100BC0009B899AB27B8813439AB27B689A8109E029
:100BD0007B689B899AB27B88DB439BB213409AB2B5
:100BE0007B689A810C37BD465DF8047B704700BF77
:100BF00080B483B000AF78600B467B807B88DB439A
:100C00009AB27B681A820C37BD465DF8047B704748
:100C100080B500AF154A154B1B6843F00103136004
:100C20001249124B5A68124B13404B600F4A0F4B3C
:100C30001B6823F0847323F4803313600B4A0B4B3F
:100C40001B6823F480231360084A084B5B6823F475
:100C5000FE035360054B4FF41F029A6000F00CF83E
:100C6000044B4FF000629A6080BD00BF001002404C
:100C70000000FFF800ED00E080B500AF00F002F8E2
:100C800080BD00BF80B483B000AF00237B60002331
:100C90003B603A4A394B1B6843F480331360374B4F
:100CA0001B6803F400333B607B6801337B603B6867
:100CB000002B03D17B68B3F5A06FF0D12F4B1B68DD
:100CC00003F40033002B02D001233B6001E000233A
:100CD0003B603B68012B4BD1294A294B1B6843F0F1
:100CE00010031360264A264B1B6823F0030313608E
:100CF000234A234B1B6843F0020313601F4A1F4B18
:100D00005B6853601D4A1D4B5B6853601B4A1B4B5D
:100D10005B6843F480635360184A184B5B6823F4A4
:100D20007C135360154A154B5B6843F4E81353601A
:100D3000124A124B1B6843F08073136000BF0F4BC5
:100D40001B6803F00073002BF9D00C4A0B4B5B6857
:100D500023F003035360094A084B5B6843F0020326
:100D6000536000BF054B5B6803F00C03082BF9D1FF
:100D70000C37BD465DF8047B704700BF0010024091
:100D80000020024080B582B000AF104B7B60104B5A
:100D90003B6007E03B681A1D3A607A68111D796074
:100DA00012681A603B680B4A9342F3D30A480B4916
:100DB0004FF000028842B8BF40F8042BFADBFFF77F
:100DC00027FF00F005F90837BD4680BD884A0008B6
:100DD00000000020BC040020BC04002014400020BF
:100DE00080B400AFFEE700BF80B489B000AF786088
:100DF00039600023FB6100233B610023BB610023BA
:100E0000FB6000237B610023BB603B68DB7803F061
:100E10000F03FB613B68DB7803F01003002B05D068
:100E20003B689B781A46FB691343FB613B681B8850
:100E3000DBB2002B44D07B681B687B610023BB6165
:100E400038E0BB69012202FA03F3FB603B681B88B0
:100E50001A46FB6813403B613A69FB689A4226D107
:100E6000BB699B00FB60FB680F2202FA03F3BB60C7
:100E7000BB68DB437A6913407B61FB68FA6902FA5D
:100E800003F37A6913437B613B68DB78282B05D138
:100E9000BB6901229A407B685A6108E03B68DB78B5
:100EA000482B04D1BB6901229A407B681A61BB6957
:100EB0000133BB61BB69072BC3D97B687A691A60B0
:100EC0003B681B88FF2B4AD97B685B687B610023EA
:100ED000BB613EE0BB6908331A4601239340FB60C7
:100EE0003B681B881A46FB6813403B613A69FB6804
:100EF0009A422BD1BB699B00FB60FB680F2202FA70
:100F000003F3BB60BB68DB437A6913407B61FB681A
:100F1000FA6902FA03F37A6913437B613B68DB7871
:100F2000282B07D1BB6908331A46012303FA02F2C2
:100F30007B685A613B68DB78482B07D1BB69083373
:100F40001A46012303FA02F27B681A61BB69013376
:100F5000BB61BB69072BBDD97B687A695A602437AE
:100F6000BD465DF8047B704780B483B000AF786005
:100F70000B467B807A887B681A610C37BD465DF82A
:100F8000047B704780B483B000AF78600B467B80F1
:100F90007A887B685A610C37BD465DF8047B7047E0
:100FA00080B483B000AF78600B467B8013467B70C3
:100FB0007B78002B03D07A887B681A6102E07A88FC
:100FC0007B685A610C37BD465DF8047B704700BFF3
:100FD00080B584B004AFFFF775FC2C4801F052F9DE
:100FE000FFF7AEFB2A4801F04DF92A48FA21062204
:100FF000FFF7E0FBFFF7AAFC02F0E0FE264801F055
:1010000041F902F067FF254801F03CF9244800F05F
:10101000B1FD4FF410601F49062201F0BBFBFFF742
:10102000B7FC204B1B6920489847022300930023FC
:10103000019300230293002303931C481C494FF49F
:101040008072002301F09EFE012300930023019390
:101050000023029300230393164817494FF480722C
:10106000002301F08FFE012300930023019300234E
:10107000029300230393114811494FF48072002317
:1010800001F080FE01F054FFFEE700BF6C4900084C
:1010900084490008D804002098490008C049000885
:1010A000180000206C000020103E0020C510000831
:1010B000D849000839110008E44900085511000812
:1010C000F4490008B0B584B000AF78600023FB603D
:1010D000FB680133FB604FF47A7001F0EFFEFB68B0
:1010E000124AA2FB0323DB0A1D46FB68104AA2FB3F
:1010F000032359090E4BA3FB01235A0913461B0175
:101100009B1A9B00CA1A1446F968094BA3FB0123DA
:101110005A0913461B019B1A9B00CA1A134605481D
:101120002946224601F0AEF8D2E700BFC5B3A2912E
:1011300089888888FC49000880B582B000AF786053
:10114000002003494EF6602200F032F8F8E700BFB5
:101150001036002080B582B000AF7860124B1B695A
:1011600012489847104B01221A760F4B1B6898477C
:101170000D4BDB68572098470B4B5B6898470A4B31
:10118000DB6832209847084B01221A76064B9B6891
:10119000984700BF044B1B7E002BFBD1024BDB6842
:1011A00064209847E1E700BF6C000020103E00205B
:1011B00080B584B000AF03463960FB711346BB8035
:1011C0000023FB810023BB81FB799B000133DB0003
:1011D00003F54073184601F0CBF903461C2B00F2CF
:1011E000A48001A252F823F0091300082B13000871
:1011F0002B1300082B1300082B1300082B130008D7
:101200002B1300082B1300082B1300082B130008C6
:101210002B1300082B1300082B1300082B130008B6
:101220002B1300082B1300082B1300082B130008A6
:101230002B130008F11200082B1300082B130008D1
:101240002B1300085D1200082B1300082B13000855
:101250002B1300082B130008D9120008FB799B0000
:101260000133DB0003F50073184601F081F90346F2
:1012700003F00103002B09D0FB799B000133DB0055
:1012800003F500731846012101F0C6F9FB791846F1
:1012900001F034FB0346FB81FB89002B1BD0FB894B
:1012A000B3F5006F02D94FF40063FB81FA79FB8933
:1012B000104639681A46FFF78DF9B860BB68B3F578
:1012C000007F01D0BB6832E01B4839684FF40072E0
:1012D00003F038FA2AE029E0FB791846FFF704F911
:1012E0000346BB60BB68012B01D0BB681FE01DE05B
:1012F000FB791846FFF796F80346BB60BB68012BE5
:1013000001D0BB6813E011E0FA79BB8810460121D7
:101310001A460023FEF70EFF0346BB60FB79BA684E
:101320009A4201D0BB6802E000E000BF01231846EA
:101330001037BD4680BD00BF103E002080B400AF16
:10134000BD465DF8047B704780B400AFBD465DF8D4
:10135000047B704780B400AFBD465DF8047B7047E6
:1013600080B400AFBD465DF8047B704780B483B0A5
:1013700000AF78607B681B78DBB218460C37BD463F
:101380005DF8047B704700BF80B483B000AF786025
:101390000B46FB707B68FA781A700C37BD465DF817
:1013A000047B704780B400AF00231846BD465DF84B
:1013B000047B704780B483B000AF0346FB710C37E9
:1013C000BD465DF8047B704780B483B000AF7860A1
:1013D00039607B68002B02D03B68002B06D1094B9B
:1013E000094A9A60074B094ADA6005E0054A7B68BA
:1013F0009360044A3B68D3600C37BD465DF8047BBC
:10140000704700BF300000203D130008491300085A
:1014100080B483B000AF786039607B68002B02D065
:101420003B68002B06D1094B094A1A61074B094A50
:101430005A6105E0054A7B681361044A3B685361C1
:101440000C37BD465DF8047B704700BF30000020BC
:10145000551300086113000880B483B000AF7860B2
:10146000396000BF0E4B1B8803F40073002BF9D0CA
:101470007B68002B02D03B68002B06D1084B094A41
:101480009A61074B084ADA6105E0054A7B68936177
:10149000034A3B68D3610C37BD465DF8047B704757
:1014A00030000020A5130008B513000890B587B0E0
:1014B00000AF03463960FB710023FB750023FB601E
:1014C00000233B61FB790F2B00F2C08001A252F890
:1014D00023F000BF151500081B150008471500086C
:1014E0003B15000855150008611500086F15000828
:1014F00095150008BB150008F5150008FB15000838
:1015000003160008511600080B16000819160008EB
:101510003316000800F0A6F89BE03B68002B04D0CF
:101520003B68FB60FB6808333B61FA683B69104627
:10153000194600F0E3F803468CE03B681B88184628
:1015400000F066F985E000F081F903461A463B6831
:101550001A807EE03B681B88184600F09DF978E011
:1015600000F0B4F903461A463B681A8071E03B6804
:101570001B881B0A9BB2DBB24FF49850194601F04E
:101580004BF83B681B88DBB24FF4A050194601F0C2
:1015900043F85EE04FF4985000F0EAFF03469BB238
:1015A0001B029CB24FF4A05000F0E2FF03469BB236
:1015B00023449AB23B681A804BE0294B9A783B68E7
:1015C0001A703B680133264AD2781A703B6802339E
:1015D000234A12791A703B680333214A52791A70F0
:1015E0003B6804331E4A92791A703B680533002227
:1015F0001A702EE000F0C0F92BE0386800F0E2F934
:1016000027E0386800F020FA23E03B681B78184692
:1016100000F066FA03461DE000F094F90346FB75FE
:10162000FB7DFF2B01D1FF2314E03B68FA7D1A708C
:101630000FE000F06FF90346FB75FB7DFF2B01D136
:10164000FF2307E03B68FA7D1A7002E0FF2301E008
:1016500000BF00235BB218461C37BD4690BD00BFDB
:101660003000002080B586B000AF3B1D4FF4106005
:101670001946062201F026F807F114034FF4807092
:101680001946042201F01EF807F110034FF4A06080
:101690001946042201F016F807F10C034FF47060AC
:1016A0001946042201F00EF80020802100F0B4FF5A
:1016B000002000F05DFF3B1D4FF41060194606222C
:1016C00001F068F807F114034FF480701946042202
:1016D00001F060F807F110034FF4A06019460422EE
:1016E00001F058F807F10C034FF47060194604221A
:1016F00001F050F81837BD4680BD00BF80B584B0FA
:1017000000AF786039600023BB73FFF7ABFF7B68E5
:10171000002B39D00023BB730023FB7313E097F930
:101720000F307A6813441A78BB7B1344DBB2BB7367
:1017300097F90E30102B01DDFF2363E0FB7BDBB25A
:101740000133DBB2FB7397F90F30072BE7DD002382
:10175000FB7315E097F90F309B000133DB0003F5B5
:10176000F853194697F90F307A6813441B780846E6
:10177000194600F051FFFB7BDBB20133DBB2FB7398
:1017800097F90F30072BE5DD3B68002B39D000239C
:10179000BB730023FB7313E097F90F303A681344CF
:1017A0001A78BB7B1344DBB2BB7397F90E30102B56
:1017B00001DDFF2326E0FB7BDBB20133DBB2FB73F1
:1017C00097F90F30072BE7DD0023FB7315E097F93E
:1017D0000F309B000133DB0003F5F053194697F9F6
:1017E0000F303A6813441B780846194600F014FF7E
:1017F000FB7BDBB20133DBB2FB7397F90F30072BB6
:10180000E5DD00235BB218461037BD4680BD00BF42
:1018100080B584B000AF0346FB80FB88FB73FB8878
:101820001B0A9BB2BB73FB7B23F00F03DBB24FF4AD
:10183000A850194600F0F0FEBB7B4FF4B850194693
:1018400000F0EAFE1037BD4680BD00BF80B582B013
:1018500000AF0023FB710023BB710023BB804FF45A
:10186000A85000F085FE034623F00F03FB714FF4F0
:10187000B85000F07DFE0346BB71BB79BB80BB88CE
:101880001B029AB2FB799BB21344BB80BB881846FB
:101890000837BD4680BD00BF80B584B000AF0346A9
:1018A000FB80FB88FB73FB881B0A9BB2BB73FB7B33
:1018B0004FF4B050194600F0AFFEBB7B4FF4C05060
:1018C000194600F0A9FE1037BD4680BD80B582B034
:1018D00000AF0023FB710023BB710023BB804FF4DA
:1018E000B05000F045FE0346FB714FF4C05000F0CD
:1018F0003FFE0346BB71BB79BB80BB881B029AB21B
:10190000FB799BB21344BB80BB8818460837BD46A1
:1019100080BD00BF80B582B000AF4FF4385000F0FA
:1019200027FE034603F00103002B02D00123FB71C5
:1019300001E00023FB71FB795BB218460837BD4616
:1019400080BD00BF80B582B000AF0023FB714FF4B3
:10195000385000F00DFE034603F03003002B02D098
:101960000123FB7101E00023FB71FB795BB2184698
:101970000837BD4680BD00BF80B582B000AF4FF4D0
:10198000385000F0F5FD0346FB71FB7903F07F034F
:10199000FB71FB794FF43850194600F03DFE4FF4CF
:1019A000385000F0E5FD0346FB71FB7963F07F03DF
:1019B000FB71FB794FF43850194600F02DFE0837C3
:1019C000BD4680BD80B584B000AF78600023FB7356
:1019D0007B681B78012B04D1FB7B43F04003FB7336
:1019E00003E0FB7B23F04003FB737B685B78012BF8
:1019F00004D1FB7B43F03803FB7319E07B68DB7891
:101A0000012B0DD17B689B78012B04D1FB7B43F02C
:101A10001803FB730CE0FB7B43F00803FB7307E048
:101A20007B689B78012B03D1FB7B43F01003FB7396
:101A3000FB7B4FF43850194600F0EEFDFFF79CFF9A
:101A40001037BD4680BD00BF80B584B000AF786060
:101A50000023FB734FF4385000F08AFD0346FB73FC
:101A6000FB7B03F04003002B14BF01230023DBB2F8
:101A70001A467B681A70FB7B03F03803202B01D0D9
:101A8000382B03D17B6801225A7003E07B68002267
:101A90005A7000BFFB7B03F03803182B03D0202BB8
:101AA00001D0102B03D17B6801229A7003E07B6880
:101AB00000229A7000BFFB7B03F03803182B03D081
:101AC000202B01D0082B03D17B680122DA7003E0C0
:101AD0007B680022DA7000BF1037BD4680BD00BFB2
:101AE00080B584B000AF0346FB710023FB734FF455
:101AF000385000F03DFD0346FB73FB7B03F04003D1
:101B0000002B01D1FF232FE0FB7B23F03803FB7375
:101B1000FB79012B04D1FB7B43F03003FB7303E023
:101B2000FB7B43F03803FB73FB7B4FF438501946C3
:101B300000F072FDFFF720FF4FF4385000F018FD61
:101B40000346FB73FB79012B06D1FB7B03F03003CB
:101B5000002B08D0002307E0FB7B03F03803002BA9
:101B600001D0002300E0FF235BB218461037BD46CA
:101B700080BD00BF80B582B000AF78607B684FF455
:101B800010601946062200F005FE7B680E334FF404
:101B900080701946042200F0FDFD7B680A334FF483
:101BA000A0601946042200F0F5FD7B6806334FF46F
:101BB00070601946042200F0EDFD7B689A7C0A4BA8
:101BC0001A707B68DA7C084B5A707B681A7D064B6A
:101BD0009A707B685A7D044BDA707B689A7D034B60
:101BE0001A700837BD4680BDE0040020E4040020E0
:101BF00080B582B000AF78607B684FF41060194602
:101C0000062200F05FFD7B680E334FF480701946AA
:101C1000042200F057FD7B680A334FF4A060194698
:101C2000042200F04FFD7B6806334FF470601946C4
:101C3000042200F047FD0B4B1A787B689A74094B1D
:101C40005A787B68DA74074B9A787B681A75054B6B
:101C5000DA787B685A75044B1A787B689A7508376E
:101C6000BD4680BDE0040020E404002080B582B0C1
:101C700000AF0346FB71FB799BB20748194601F0A0
:101C80007BFD00BF0448802101F088FD0346002B46
:101C9000F8D00837BD4680BD0038014080B483B01D
:101CA00000AF78600B46FB707B68FA781A700123EE
:101CB00018460C37BD465DF8047B704780B485B08C
:101CC00000AF786039600023FB600AE07B685A1C33
:101CD0007A603A68511C396012781A70FB680133D7
:101CE000FB603B681B78002BF0D1FB68184614376B
:101CF000BD465DF8047B704780B586B000AFF860E4
:101D00007A603B600B46FB7200237B617B68013B82
:101D10007B603B68092B10D93B681E4AA2FB03235A
:101D2000DB08FA7AF86811467A68FFF7E5FF786110
:101D30007B69FA681344FB6011E00DE0FB7AF868F8
:101D40001946FFF7ABFFFB680133FB607B6901338A
:101D50007B617B68013B7B607B68002BEEDC396834
:101D60000C4BA3FB0123DA0813469B0013445B00D2
:101D7000CA1AD3B23033DBB2F8681946FFF78EFFC8
:101D800002467B6913447B617B6918461837BD4660
:101D900080BD00BFCDCCCCCC90B587B000AFF86093
:101DA0007A603B600B46FB7200237B613B68002B33
:101DB00003DA3B685B423B6101E03B683B617B6867
:101DC000013B7B603B69092B25D93B68002B0FDA6F
:101DD0003B69314AA2FB0323DB085B421C46FB7ACA
:101DE000F86819467A682346FFF7D6FF78610DE058
:101DF0003B69294AA2FB0323DB081C46FB7AF868EF
:101E000019467A682346FFF7C7FF78617B69FA684D
:101E10001344FB6025E03B68002B02DA7B68013B42
:101E20007B600DE0FB7AF8681946FFF737FFFB6827
:101E30000133FB607B6901337B617B68013B7B6025
:101E40007B68002BEEDC3B68002B0ADAF8682D215A
:101E5000FFF724FF02467B6913447B61FB68013373
:101E6000FB6039690C4BA3FB0123DA0813469B0086
:101E700013445B00CA1AD3B23033DBB2F868194698
:101E8000FFF70CFF02467B6913447B617B691846B0
:101E90001C37BD4690BD00BFCDCCCCCC90B589B031
:101EA00002AFF8607A601A460B46FB721346BB72AB
:101EB00000237B617B68013B7B60BB6A1B09002BB5
:101EC00013D0BB6A1B09FA7ABC7A0093F8681146F2
:101ED0007A682346FFF7E2FF02467B6913447B6181
:101EE0007B69FA681344FB6011E00DE0FB7AF86847
:101EF0001946FFF7D3FEFB680133FB607B690133B2
:101F00007B617B68013B7B607B68002BEEDCBB6AFE
:101F100003F00F03092B0BD8BB6ADBB203F00F03EE
:101F2000DBB23033DBB2F8681946FFF7B7FE19E0D1
:101F3000BB7A002B0BD0BB6ADBB203F00F03DBB222
:101F40003733DBB2F8681946FFF7A8FE0AE0BB6A30
:101F5000DBB203F00F03DBB25733DBB2F86819468C
:101F6000FFF79CFE7B6901337B617B6918461C3758
:101F7000BD4690BD90B58BB002AFF860B9607A6095
:101F80003B600023BB6100237B61FB68002B02D018
:101F9000FB6800221A70FCE07B681B78252B0BD0B5
:101FA000FB685A1CFA607A68511C796012781A70C2
:101FB0007B6901337B61ECE07B6801331B78252B67
:101FC0000BD1FB685A1CFA6025221A707B68023319
:101FD0007B607B6901337B61DBE02023FB7700239F
:101FE000BB777B6801337B607B681B78302B04D127
:101FF0003023FB777B6801337B600EE0BB7F1A46A2
:10200000920013445B00DAB27B681B781344DBB2A6
:10201000303BBB777B6801337B607B681B782F2B61
:1020200003D97B681B78392BE8D9BA7F7B691344C5
:102030001A46BB689A4205D9BB68DAB27B69DBB243
:10204000D31ABB777B681B78583B202B00F2938018
:1020500001A252F823F000BF2F21000877210008C9
:1020600077210008772100087721000877210008F0
:1020700077210008772100087721000877210008E0
:102080007721000861210008DD2000087721000881
:10209000772100087721000877210008DD2000085B
:1020A00077210008772100087721000877210008B0
:1020B00077210008772100087721000877210008A0
:1020C000772100084D21000877210008F72000083B
:1020D000772100087721000811210008BC7F3B68A8
:1020E0001A1D3A601B68FA7FF86811462246FFF70E
:1020F00053FEB86142E0BC7F3B681A1D3A601B6822
:10210000FA7FF86811462246FFF7F6FDB86135E020
:10211000BC7F3B681A1D3A601B68FA7F0093F86821
:10212000114622460023FFF7B9FEB86126E0BC7FC6
:102130003B681A1D3A601B68FA7F0093F8681146E5
:1021400022460123FFF7AAFEB86117E03B681A1D7B
:102150003A601B68F8681946FFF7B0FDB8610DE0FA
:102160003B681A1D3A601B68DBB2F8681946FFF736
:1021700095FDB86102E04FF0FF3325E07B68013345
:102180007B60BB69FA681344FB607A69BB691344DE
:102190007B617B681B78002B04D07A69BB689A420C
:1021A000FFF4FAAE7A69BB689A4203D2FB68002258
:1021B0001A7008E0FB68013BFB60FB6800221A70A4
:1021C0007B69013B7B617B6918462437BD4690BD26
:1021D00080B584B000AFF860B9607A60F8686421B7
:1021E000BA687B68FFF7C6FE034618461037BD463F
:1021F00080BD00BFB0B5A6B000AFF860B9607A602E
:10220000144B07F110041D460FCD0FC40FCD0FC4A2
:102210002B68236007F134031846B9687A68FFF722
:10222000D7FF0346632B09DD0B4B1B68DB6807F107
:1022300010021046194600F06BF8FEE707F1340370
:102240001846F96800F064F8034618469837BD460A
:10225000B0BD00BF104A0008B804002080B582B0AD
:1022600000AF78603960064B1B689B681846796838
:102270003A68FFF7BFFF034618460837BD4680BDE2
:10228000B80400200FB480B582B000AF07F114038A
:102290003B6038693968FFF7E1FF78607B68184672
:1022A0000837BD46BDE8804004B0704780B582B0B5
:1022B00000AF7860054B1B689B687868194600F092
:1022C00027F8034618460837BD4680BDB8040020ED
:1022D00080B582B000AF786039600C4B1B689A689B
:1022E0003B689A4205D0094B1B68DA683B689A4202
:1022F00006D17B68DBB21846FFF7B8FC7B6801E0CB
:102300004FF0FF3318460837BD4680BDB8040020A3
:1023100080B584B000AF786039600023FB6012E0C4
:102320007B681B7818463968FFF7D2FF0346B3F184
:10233000FF3F02D14FF0FF330AE0FB680133FB603F
:102340007B6801337B607B681B78002BE8D1FB68DE
:1023500018461037BD4680BD80B487B000AF7860A6
:1023600000237B6100233B610023FB600023BB60F3
:102370004D4B5B6803F00C037B617B69042B07D03A
:10238000082B09D0002B34D17B68484A1A6034E00E
:102390007B68464A1A6030E0434B5B6803F4701375
:1023A0003B61414B5B6803F48033FB603B699B0CF2
:1023B00002333B61FB68002B06D13B693C4A02FBC0
:1023C00003F27B681A6013E0374B5B6803F4003359
:1023D000002B06D03B69364A02FB03F27B681A6089
:1023E00006E03B69314A02FB03F27B681A6004E0B5
:1023F00003E07B682D4A1A6000BF2B4B5B6803F03B
:10240000F0037B617B691B097B612A4A7B6913446A
:102410001B78DBB2BB607B681A68BB68DA407B68FC
:102420005A60214B5B6803F4E0637B617B691B0AA4
:102430007B61204A7B6913441B78DBB2BB607B68FD
:102440005A68BB68DA407B689A60174B5B6803F494
:1024500060537B617B69DB0A7B61164A7B691344AD
:102460001B78DBB2BB607B685A68BB68DA407B686C
:10247000DA600D4B5B6803F440437B617B699B0B27
:102480007B610D4A7B6913441B78DBB2BB607B68C0
:10249000DA68BB68B2FBF3F27B681A611C37BD4691
:1024A0005DF8047B704700BF0010024000127A0004
:1024B00000093D00580000206800002080B483B06F
:1024C00000AF78600B46FB70FB78002B06D0094903
:1024D000084B5A697B6813434B6106E00549054B7D
:1024E0005A697B68DB4313404B610C37BD465DF88E
:1024F000047B70470010024080B483B000AF786066
:102500000B46FB70FB78002B06D00949084B9A69F3
:102510007B6813438B6106E00549054B9A697B682C
:10252000DB4313408B610C37BD465DF8047B70477D
:102530000010024080B483B000AF78600B46FB709F
:10254000FB78002B06D00949084BDA697B681343F6
:10255000CB6106E00549054BDA697B68DB43134034
:10256000CB610C37BD465DF8047B7047001002401C
:1025700080B584B000AF7860264B9B689847254BA8
:102580001B699847234B1B6A002B03D0214B5B6AC6
:10259000002B18D11F4BDB697A6802F47F02120C02
:1025A000D2B2104698471B4BDB697A6802F47F422F
:1025B000120AD2B210469847164BDB697A68D2B23B
:1025C0001046984715E07B6803F47F031B0CDBB2D1
:1025D0003B737B6803F47F431B0ADBB27B737B682E
:1025E000DBB2BB730B4B5B6A07F10C021046032195
:1025F0009847084B9B6998470346FB73054B5B69FB
:102600009847044BDB689847FB7B18461037BD465C
:1026100080BD00BF3000002080B584B000AF78607E
:102620000B46FB70264B9B689847254B1B699847C8
:102630007B6843F004037B60214B5B6A002B1DD158
:102640001F4BDB697A6802F47F02120CD2B210468B
:1026500098471B4BDB697A6802F47F42120AD2B2B8
:1026600010469847164BDB697A68D2B210469847F5
:10267000134BDB69FA781046984717E07B6803F440
:102680007F031B0CDBB23B737B6803F47F431B0AA5
:10269000DBB27B737B68DBB2BB73FB78FB73084BED
:1026A0005B6A07F10C02104604219847044B5B69F2
:1026B0009847034BDB6898471037BD4680BD00BF85
:1026C0003000002090B587B000AFF860B9601346C5
:1026D000FB802F4B9B6898472D4B1B6998472C4BD1
:1026E0001B6A002B03D02A4B5B6A002B2AD1284B94
:1026F000DB69FA6802F47F02120CD2B210469847E6
:10270000234BDB69FA6802F47F42120AD2B2104608
:1027100098471F4BDB69FA68D2B2104698470023EE
:10272000FB820AE0FB8ABA68D418194B9B69984768
:1027300003462370FB8A0133FB82FA8AFB889A42A4
:10274000F0D31BE0FB6803F47F031B0CDBB23B748C
:10275000FB6803F47F431B0ADBB27B74FB68DBB2CC
:10276000BB740B4B5B6A07F11002104603219847BC
:10277000074B1B6AFA88B86811469847044B5B6997
:102780009847034BDB6898471C37BD4690BD00BF98
:102790003000002080B586B000AFF860B960134605
:1027A000FB802F4B9B6898472D4B1B699847FB6814
:1027B00043F00403FB602A4B5B6A002B2AD1284BB1
:1027C000DB69FA6802F47F02120CD2B21046984715
:1027D000234BDB69FA6802F47F42120AD2B2104638
:1027E00098471F4BDB69FA68D2B21046984700231E
:1027F000FB820AE01A4BDB69FA8AB9680A4412784C
:1028000010469847FB8A0133FB82FA8AFB889A427A
:10281000F0D31BE0FB6803F47F031B0CDBB23B74BB
:10282000FB6803F47F431B0ADBB27B74FB68DBB2FB
:10283000BB740B4B5B6A07F11002104603219847EB
:10284000074B5B6AFA88B86811469847044B5B6986
:102850009847034BDB6898471837BD4680BD00BFDB
:102860003000002090B585B000AF0346FB71002317
:10287000FB810023BB81FB799B000133DB0003F567
:1028800000531846FFF774FE0346BB81BB891B0249
:102890009CB2FB799B000133DB0003F5045318461F
:1028A000FFF766FE03469BB22344BB81BB89002B26
:1028B0001AD0FB799B000133DB0003F50053184667
:1028C000FFF756FE0346FB81FB891B029CB2FB7996
:1028D0009B000133DB0003F504531846FFF748FE65
:1028E00003469BB22344FB81FA89BB899A42C2D139
:1028F000FB8918461437BD4690BD00BF90B585B022
:1029000000AF0346FB710023FB810023BB81FB79F1
:102910009B000133DB0003F518531846FFF728FE30
:102920000346BB81BB891B029CB2FB799B00013330
:10293000DB0003F51C531846FFF71AFE03469BB253
:102940002344BB81BB89002B1AD0FB799B00013348
:10295000DB0003F518531846FFF70AFE0346FB8118
:10296000FB891B029CB2FB799B000133DB0003F562
:102970001C531846FFF7FCFD03469BB22344FB8122
:10298000FA89BB899A42C2D1FB8918461437BD46E1
:1029900090BD00BF90B585B000AF03463960FB71B4
:1029A0001346BB800023FB810023BB60BB88002B48
:1029B00000D147E0FB799B000133DB0003F5205396
:1029C0001846FFF7D5FD03469BB21B029CB2FB796C
:1029D0009B000133DB0003F524531846FFF7C8FDC5
:1029E00003469BB22344FB81FB891B02FA799200C8
:1029F0000332D2001344BB60BB88B86839681A46FA
:102A0000FFF760FEFA89BB881344FB81FB799B00CA
:102A10000133DB0003F520531A46FB891B0A9BB2E6
:102A2000DBB210461946FFF7F7FDFB799B00013337
:102A3000DB0003F524531A46FB89DBB21046194626
:102A4000FFF7EAFD1437BD4690BD00BF80B582B0E8
:102A500000AF4FF48063BB801423FB710323BB7171
:102A60003B1D06481946FEF7BFF904484FF4806144
:102A70000022FEF795FA0837BD4680BD000C0140E4
:102A800080B582B000AF4FF48063BB801823FB7128
:102A90000323BB713B1D03481946FEF7A5F9083710
:102AA000BD4680BD000C014080B500AF0648002146
:102AB00001F0A6F8044840F2012101F0DBF80248D9
:102AC000012101F09DF880BD1C00024080B483B05C
:102AD00000AF78600D4B01221A704FF080437A6886
:102AE00092B29A854FF080424FF080431B889BB290
:102AF00043F001039BB2138000BF044B1B78002BF3
:102B0000FBD10C37BD465DF8047B704711400020B7
:102B100080B598B000AF78607868002140F201225B
:102B200001F086FE01200121FFF704FD01200121B3
:102B3000FFF7C4FC4FF480200121FFF7FBFC0820C5
:102B40000121FFF7D9FC40200121FFF7D5FC4FF40C
:102B50008063A7F85830182387F85B30032387F881
:102B60005A3007F1580360481946FEF73DF94FF413
:102B70000063A7F85830042387F85B3007F1580347
:102B800059481946FEF730F94FF40063A7F858305A
:102B9000102387F85B3007F1580354481946FEF7B5
:102BA00023F952484FF400610122FEF7F9F91C2382
:102BB00087F85430012387F85530002387F85630C2
:102BC000012387F8573007F15403184601F094F8B1
:102BD0000C2387F85430012387F85530002387F8F9
:102BE0005630012387F8573007F15403184601F097
:102BF00083F83F4B1B683F4AA2FB03235B0D9BB24C
:102C0000013BA7F85E304723A7F848300023A7F818
:102C10004A3042F21073A7F84C300023A7F84E3028
:102C2000002387F8503007F148034FF080401946E1
:102C3000FDF71EFF4FF080400121FDF7D9FF4FF057
:102C4000804001210122FDF7AFFF2B4BBB63002326
:102C5000BB874FF40053FB870023A7F840300023C5
:102C6000A7F844300C23A7F8423007F13803234873
:102C7000194600F083FC2148012100F039FD1F486E
:102C80008021012200F054FD1C48802100F0A2FDAB
:102C90001A4840F2277100F0ADFD194BFB607B68CC
:102CA0003B6110237B6140F20123BB610023FB6188
:102CB00080233B6200237B620023BB620023FB6214
:102CC0004FF400533B6300237B6307F10C030D4873
:102CD000194600F057FF0B480221012200F0ACFF1B
:102CE0006037BD4680BD00BF000C014000080140B8
:102CF00004000020819F5E1690D003000048004031
:102D0000044800401C00024080B485B000AFF86069
:102D1000B9601346FB71BB68B3F5007F05D2BB6891
:102D20000133FA681344FA791A701437BD465DF816
:102D3000047B704780B500AF00F02CF9074B0022F0
:102D40001A704FF080400021FDF70EFF4FF08040D9
:102D50000121FDF74DFF00F02BF980BD114000204F
:102D600080B500AF00F016F9054B00221A7620203E
:102D700000F08EFF202000F0A5FF00F019F980BDC3
:102D80006C00002080B58AB002AFF860B9603B608B
:102D90001346FB80FB881846396B00F08FFBB86147
:102DA000BB69002B67D0BB691A6BFB8803F18043BA
:102DB000013B9B0013447B617B6923F007037B612C
:102DC000FB880093B869B968BA6A7B6B00F076FA41
:102DD0007869F9683A6800F0DBFD0246BB691A6061
:102DE000FB6A002B02D0FB6ABA691A6000F052FE3F
:102DF0002C4B1B6801332B4A13602B4B1B68002B99
:102E000009D1294ABB691360264B1B68012B0FD1DE
:102E100000F0A6FA0CE0254B1B68002B08D1224BD2
:102E20001B68DA6ABB6A9A4202D81F4ABB69136000
:102E30001F4B1B6801331E4A1360BB69DB6A1A46CD
:102E4000012303FA02F21B4B1B681343194A136058
:102E5000BB69DA6A13469B0013449B00164A1A4466
:102E6000BB6904331046194600F00CFD0123FB61D9
:102E700000F020FE02E04FF0FF33FB61FB69012B05
:102E80000BD10A4B1B68002B07D0074B1B68DA6A73
:102E9000BB6A9A4201D200F0EDFDFB69184620376B
:102EA000BD4680BDD4050020E8040020E0050020D8
:102EB000F0050020DC050020EC04002080B584B083
:102EC00000AF78600023FB607B68002B21D000F00E
:102ED00061F8144B1A687B681344BB60124B1B6883
:102EE0000433184600F02AFD0346002B0BD10E4B8D
:102EF0001B68DB6A1A4601239340DA430B4B1B68BD
:102F000013400A4A1360B86800F0A2FA00F050F8C3
:102F1000F860FB68002B01D100F0ACFD1037BD4616
:102F200080BD00BFD8050020E8040020DC0500209B
:102F300080B586B004AF00230093002301930023E3
:102F40000293002303930E480E494FF4807200232E
:102F5000FFF718FF78607B68012B0DD100F0BCFDF6
:102F6000094B4FF0FF321A60084B01221A60084BE0
:102F700000221A6000F060FD0837BD4680BD00BF2A
:102F80009D320008344A0008F4050020E0050020C6
:102F9000D805002080B400AF044B1B680133034AFE
:102FA0001360BD465DF8047B704700BFF805002044
:102FB00080B582B000AF00237B6000F06BFD344B26
:102FC0001B68013B324A1360314B1B68002B57D101
:102FD000304B1B68002B53D030E02F4BDB68DB6895
:102FE0003B603B681833184600F0A8FC3B6804338C
:102FF000184600F0A3FC3B68DB6A1A46012303FA7B
:1030000002F2264B1B681343244A13603B68DA6ABA
:1030100013469B0013449B00214A1A443B68043327
:103020001046194600F02EFC3B68DA6A1D4B1B68FF
:10303000DB6A9A4202D31C4B01221A60164B1B68B2
:10304000002BCAD1194B1B68002B11D00CE000F0EB
:103050002FF80346002B02D0134B01221A60134BAA
:103060001B68013B114A1360104B1B68002BEED10B
:103070000D4B1B68012B03D101237B6000F0FAFC90
:1030800000F018FD7B6818460837BD4680BD00BFBC
:10309000F8050020D405002094050020DC05002060
:1030A000EC040020E8040020E8050020E4050020EE
:1030B00080B586B000AF00237B614A4B1B68002BB4
:1030C0007FD1494B1B680133474A1360464B1B684D
:1030D0003B613B69002B10D1444B1B68FB60444BA8
:1030E0001B68424A1360424AFB681360414B1B68ED
:1030F0000133404A136000F01DFA3F4B1B683A69E8
:103100009A424FD3394B1B681B68002B01D1012316
:1031100000E00023002B04D0374B4FF0FF321A6041
:1031200040E0324B1B68DB68DB68BB60BB685B68F8
:103130007B603A697B689A4203D22F4A7B681360AE
:1031400030E0BB680433184600F0F8FBBB689B6AAC
:10315000002B04D0BB681833184600F0EFFBBB68A7
:10316000DB6A1A46012303FA02F2244B1B6813435D
:10317000224A1360BB68DA6A13469B0013449B0023
:103180001F4A1A44BB6804331046194600F07AFB04
:10319000BB68DA6A1B4B1B68DB6A9A4201D30123C6
:1031A0007B61AFE7174B1B68DA6A154913469B0032
:1031B00013449B000B441B68012B07D901237B613F
:1031C00004E0114B1B6801330F4A13600F4B1B685F
:1031D000002B01D001237B617B6918461837BD465F
:1031E00080BD00BFF8050020D80500208C05002018
:1031F00090050020EC050020F4050020DC050020EF
:10320000EC040020E8040020E4050020E80500208C
:1032100080B485B000AF1C4B1B68002B03D01B4B48
:1032200001221A602AE0194B00221A60184B1B6811
:103230007B607B68B3FA83F3FB70FB78C3F11F03F9
:10324000FB60FA6813469B0013449B00114A134429
:10325000BB60BB685B685A68BB685A60BB685A68E9
:10326000BB6808339A4204D1BB685B685A68BB6884
:103270005A60BB685B68DB68074A13601437BD4659
:103280005DF8047B704700BFF8050020E8050020CA
:10329000DC050020EC040020E804002080B582B0AA
:1032A00000AF786000F09AF8034B1B68012B01D93E
:1032B00000F0E0FBF6E700BFEC04002080B586B02C
:1032C00000AFF860B9607A603B6000237B6113E077
:1032D000BA687B6913441978FA687B691344303300
:1032E0000A461A71BA687B6913441B78002B00D117
:1032F00005E07B6901337B617B690F2BE8D9FB68B3
:10330000002283F843207B68052B01D905237B60CD
:10331000FB687A68DA62FB687A685A64FB680022A4
:103320009A64FB680433184600F0A0FAFB6818336F
:10333000184600F09BFAFB68FA681A617B68C3F1D3
:103340000602FB689A61FB68FA685A62FB68002211
:10335000DA64FB68002283F850201837BD4680BD30
:1033600080B582B000AF00237B600CE07A68134622
:103370009B0013449B00114A1344184600F056FA70
:103380007B6801337B607B68052BEFD90C4800F02C
:103390004DFA0C4800F04AFA0B4800F047FA0B4887
:1033A00000F044FA0A4800F041FA0A4B044A1A6055
:1033B000094B044A1A600837BD4680BDEC04002062
:1033C000640500207805002094050020A805002051
:1033D000C00500208C0500209005002080B582B03B
:1033E00000AF28E0FFF7D6FD164B1B68002B0CBF83
:1033F00001230023DBB27B60FFF7DAFD7B68002B43
:1034000019D100F047FB0F4BDB68DB683B603B6882
:103410000433184600F092FA0B4B1B68013B0A4A32
:1034200013600A4B1B68013B084A136000F042FB23
:10343000386800F06FF8054B1B68002BD2D10837B5
:10344000BD4680BDA8050020D4050020BC05002095
:1034500080B582B000AF7860134B1B687A685A6001
:10346000124B1B687A689A4209D2114B1A680E4BAC
:103470001B6804331046194600F028FA10E00D4B83
:103480001A68094B1B6804331046194600F01EFAEF
:10349000094B1B687A689A4202D2074A7B6813601C
:1034A0000837BD4680BD00BFE8040020D8050020D5
:1034B000900500208C050020F405002080B584B024
:1034C00000AF03463960FB803B68002B06D1FB88C8
:1034D0009B00184601F048F8034600E03B68BB60DB
:1034E000BB68002B0ED0542001F03EF8F860FB685A
:1034F000002B03D0FB68BA681A6305E0B86801F0D6
:10350000C1F801E00023FB60FB6818461037BD4698
:1035100080BD00BF80B582B000AF78607B681B6B58
:10352000184601F0AFF8786801F0ACF80837BD46EE
:1035300080BD00BF80B483B000AF0E4B1B681B681A
:10354000002B01D1012300E00023002B04D00A4B03
:103550004FF0FF321A6008E0064B1B68DB68DB683F
:103560007B607B685B68044A13600C37BD465DF87E
:10357000047B70478C050020F405002080B58CB0DA
:1035800000AF786039600023FB620023BB62002338
:103590007B6200233B620023FB617B68FB617B68ED
:1035A0001B8A9BB2FB62FA6A4CF6FF731340FB6204
:1035B0003B68DB881A46FB6A1343FB62FB6A9AB2DC
:1035C0007B681A827B689B899BB2FB62FA6A4EF623
:1035D000F3131340FB623B689A883B681B891343D3
:1035E0009AB23B685B8913439BB21A46FB6A13434A
:1035F000FB62FB6A9AB27B689A817B689B8A9BB26A
:10360000FB62FA6A4FF6FF431340FB623B689B89FB
:103610001A46FB6A1343FB62FB6A9AB27B689A8282
:1036200007F108031846FEF797FEFB692E4A9342FE
:1036300002D17B69BB6201E03B69BB627B689B890D
:103640009BB29BB21BB2002B0CDABA6A13469B00EA
:1036500013449A001A443B681B685B00B2FBF3F307
:103660007B620BE0BA6A13469B0013449A001A442B
:103670003B681B689B00B2FBF3F37B627B6A1B4ACF
:10368000A2FB03235B091B01FB62FB6A1B0964228B
:1036900002FB03F37A6AD31A3B627B689B899BB275
:1036A0009BB21BB2002B0CDA3B6ADB0032330F4AB1
:1036B000A2FB03235B0903F00703FA6A1343FB62CF
:1036C0000BE03B6A1B013233084AA2FB03235B0970
:1036D00003F00F03FA6A1343FB62FB6A9AB27B683A
:1036E0001A813037BD4680BD003801401F85EB513F
:1036F00080B483B000AF78600B46FB70FB78002B82
:1037000008D07B689B899BB243F400539AB27B68D4
:103710009A8107E07B689B899BB223F400539AB29D
:103720007B689A810C37BD465DF8047B704700BF0B
:1037300080B483B000AF78600B467B8013467B700B
:103740007B78002B08D07B689B8A9AB27B881343D6
:103750009AB27B689A8209E07B689B8A9AB27B88DE
:10376000DB439BB213409AB27B689A820C37BD460A
:103770005DF8047B704700BF80B483B000AF786011
:103780000B467B807B88C3F308039AB27B689A80E0
:103790000C37BD465DF8047B704700BF80B485B030
:1037A00000AF78600B467B800023FB737B681B882F
:1037B0009AB27B8813409BB2002B02D00123FB738B
:1037C00001E00023FB73FB7B18461437BD465DF810
:1037D000047B704780B483B000AF78600B467B8079
:1037E0007B88DB439AB27B681A800C37BD465DF854
:1037F000047B704780B485B000AF78600B467B8057
:103800000023FB810023BB817B881B0AFB81FB8992
:10381000012202FA03F3BB81BB89DB439AB27B68C6
:103820001A801437BD465DF8047B704780B483B0BE
:1038300000AF78607B6803F108027B685A607B68A0
:103840004FF0FF329A607B6803F108027B68DA6010
:103850007B6803F108027B681A617B6800221A60AA
:103860000C37BD465DF8047B704700BF80B483B061
:1038700000AF78607B6800221A610C37BD465DF8A6
:10388000047B704780B485B000AF786039607B6896
:103890005B68FB603B68FA685A60FB689A683B6843
:1038A0009A60FB689B683A685A60FB683A689A605D
:1038B0003B687A681A617B681B685A1C7B681A60CF
:1038C0001437BD465DF8047B704700BF80B485B0F7
:1038D00000AF786039603B681B68BB60BB68B3F1C0
:1038E000FF3F03D17B681B69FB600CE07B680833FA
:1038F000FB6002E0FB685B68FB60FB685B681A6862
:10390000BB689A42F6D9FB685A683B685A603B68C4
:103910005B683A689A603B68FA689A60FB683A6844
:103920005A603B687A681A617B681B685A1C7B681E
:103930001A601437BD465DF8047B704780B485B0CB
:1039400000AF78607B681B69FB607B685B687A68A6
:1039500092689A607B689B687A6852685A60FB68D4
:103960005A687B689A4203D17B689A68FB685A6000
:103970007B6800221A61FB681B685A1EFB681A608C
:10398000FB681B6818461437BD465DF8047B70471A
:1039900080B485B000AFF860B9607A60FB68043B22
:1039A000FB60FB684FF080721A60FB68043BFB60B1
:1039B000BA68FB681A60FB68043BFB60094AFB6855
:1039C0001A60FB68143BFB607A68FB681A60FB684E
:1039D000203BFB60FB6818461437BD465DF8047B4E
:1039E000704700BFE939000880B500AF00F074F8F7
:1039F000FEE700BF074B19680868B0E8F00F80F3D6
:103A00000988BFF36F8F4FF0000080F311884EF0EC
:103A10000D0E7047E804002006480068006880F337
:103A2000088862B661B6BFF34F8FBFF36F8F00DFB8
:103A300000BF000008ED00E080B500AF0B4A0B4B63
:103A40001B6843F47F031360084A084B1B6843F06C
:103A50007F43136000F084F8054B00221A60FFF7E3
:103A6000DBFFFFF7C1FF0023184680BD20ED00E01B
:103A70008800002080B400AF054B4FF080521A60E0
:103A8000BFF34F8FBFF36F8FBD465DF8047B704768
:103A900004ED00E080B500AF00F01EF8044B1B6899
:103AA0000133034A1360BFF34F8FBFF36F8F80BDA5
:103AB0008800002080B500AF064B1B68013B054A1B
:103AC0001360044B1B68002B02D1002000F00EF89D
:103AD00080BD00BF88000020EFF311804FF0BF01D0
:103AE00081F3118870470023184600BF80F31188C6
:103AF000704700BFEFF30980BFF36F8F0D4B1A685B
:103B000020E9F00F10602DE908404FF0BF0080F36E
:103B10001188FFF77DFB4FF0000080F31188BDE8AE
:103B2000084019680868B0E8F00F80F30988BFF30F
:103B30006F8F7047E804002080B500AFFFF7CCFF1F
:103B4000FFF7B6FA0346002B03D0044B4FF0805228
:103B50001A600020FFF7CAFF80BD00BF04ED00E03F
:103B600080B400AF044B054A1A60054B07221A6067
:103B7000BD465DF8047B704714E000E03F1901008A
:103B800010E000E080B485B000AF786039600023B9
:103B9000FB607B681B68FB60FB6823F4FF4323F03A
:103BA0007003FB603B689A683B681B6A1A433B687A
:103BB0001B691A433B685B691A433B689B691A435C
:103BC0003B68DB691A433B685B6A1A433B689B6A44
:103BD0001343FA681343FB607B68FA681A603B681A
:103BE000DA687B685A603B681A687B689A603B6851
:103BF0005A687B68DA601437BD465DF8047B70470D
:103C000080B483B000AF78600B46FB70FB78002B6C
:103C100006D07B681B6843F001027B681A6006E0EF
:103C20007B681A684FF6FE7313407A6813600C378E
:103C3000BD465DF8047B704780B485B000AFF86086
:103C4000B9601346FB71FB79002B06D0FB681A683C
:103C5000BB681A43FB681A6006E0FB681A68BB6819
:103C6000DB431A40FB681A601437BD465DF8047BDD
:103C7000704700BF80B483B000AF78600B467B8094
:103C80007A887B685A600C37BD465DF8047B7047C4
:103C900080B483B000AF78607B6803F08053002B62
:103CA00003D0064A7B68536002E0054A7B68536094
:103CB0000C37BD465DF8047B704700BF000402402E
:103CC0000000024080B483B000AF78607B6803F0EE
:103CD0008053002B03D0064A7B68536002E0054AFC
:103CE0007B6853600C37BD465DF8047B704700BFAE
:103CF000000402400000024080B487B000AF78604A
:103D000000237B6100233B610F23FB607B68DB7832
:103D1000002B3AD0274BDB68DB4303F4E0631B0A3C
:103D20007B617B69C3F104033B617B69FA6822FA1A
:103D300003F3FB607B685B781A463B6902FA03F386
:103D40007B617B689B781A46FB6813407A69134352
:103D50007B617B691B017B61174A7B681B787969F2
:103D6000C9B213440A4683F80023134A7B681B78C0
:103D70005B09DBB218467B681B7803F01F03012147
:103D800001FA03F342F820300FE00B497B681B78FF
:103D90005B09DBB218467B681B7803F01F03012226
:103DA0009A4000F1200341F823201C37BD465DF8FE
:103DB000047B704700ED00E000E100E080B58AB0D0
:103DC00000AF4FF480500121FEF796FB2420012123
:103DD000FEF792FB032387F826302023BB841823A9
:103DE00087F8273007F1240337481946FCF7FCFF12
:103DF000032387F826308023BB84182387F82730D5
:103E000007F1240330481946FCF7EEFF032387F837
:103E100026304023BB84042387F8273007F124038E
:103E200029481946FCF7E0FF032387F826301023C2
:103E3000BB84102387F8273007F124032248194652
:103E4000FCF7D2FF032387F826304FF48063BB844E
:103E5000102387F8273007F124031C481946FCF784
:103E6000C3FF032387F826304FF40063BB84482345
:103E700087F8273007F1240314481946FCF7B4FFEC
:103E80000023BB834FF482737B8200233B82002399
:103E9000FB830223FB8201233B830023BB824FF47D
:103EA00000737B8307233B8407F1100308481946FE
:103EB00000F0DCF80648012100F01CF900F054F88D
:103EC0002837BD4680BD00BF0008014000140140F6
:103ED0000030014090B587B000AF1A4B3C1D186808
:103EE00059689A68DB680FC400F0B6F8164817499D
:103EF000FDF7B2FA16481749FDF78AFA164817492E
:103F0000FDF762FA3B1D01201946FDF7CFFA034683
:103F1000B3F1FF3F02D11248FEF7C8F907F11703CA
:103F20000F201946FDF7C2FA0346B3F1FF3F02D155
:103F30000C48FEF7BBF9FB7D002BEFD01C37BD46CC
:103F400090BD00BF744A000805400008BD3F00084E
:103F50004540000859400008953A0008B53A000865
:103F60003C4A0008584A000880B584B000AF0023DE
:103F70007B6011484FF48061FDF704F80023FB607B
:103F80000EE00023BB6005E07B6801337B60BB680B
:103F90000133BB60BB68632BF6DDFB680133FB605C
:103FA000FB68632BEDDD04484FF48061FCF7DCFF18
:103FB0001037BD4680BD00BF0014014080B582B0FF
:103FC00000AF0346FB7100BF0D48022100F0CEF8A0
:103FD0000346002BF8D0FB799BB20948194600F044
:103FE000A9F800BF0648012100F0C0F80346002BE5
:103FF000F8D0034800F0ACF80837BD4680BD00BFDC
:104000000030014080B500AF00BF0D48022100F034
:10401000ADF80346002BF8D00948FF2100F08AF8DC
:1040200000BF0748012100F0A1F80346002BF8D09B
:10403000034800F08DF80346DBB2184680BD00BF90
:104040000030014080B500AF02481021FCF79AFF14
:1040500080BD00BF0008014080B500AF02481021BC
:10406000FCF782FF80BD00BF0008014080B485B02E
:1040700000AF786039600023FB817B681B88FB817F
:10408000FB8903F44153FB813B681A883B685B88DA
:1040900013439AB23B689B8813439AB23B68DB8810
:1040A00013439AB23B681B8913439AB23B685B89FE
:1040B00013439AB23B689B8913439AB23B68DB89EE
:1040C00013439AB2FB891343FB817B68FA891A80F8
:1040D0007B689B8B9BB223F400639AB27B689A83C4
:1040E0003B681A8A7B681A821437BD465DF8047BE8
:1040F000704700BF80B483B000AF78600B46FB70A0
:10410000FB78002B08D07B681B889BB243F04003F0
:104110009AB27B681A8007E07B681B889BB223F009
:1041200040039AB27B681A800C37BD465DF8047B69
:10413000704700BF80B483B000AF78600B467B80CF
:104140007B687A889A810C37BD465DF8047B70479E
:1041500080B483B000AF78607B689B899BB21846BF
:104160000C37BD465DF8047B704700BF80B485B056
:1041700000AF78600B467B800023FB737B681B8954
:104180009AB27B8813409BB2002B02D00123FB73B1
:1041900001E00023FB73FB7B18461437BD465DF836
:1041A000047B704780B58AB000AF78603960002327
:1041B000FB8400237B840423BB84574BFB617B6817
:1041C0009B88FB84FB8C23F03F03FB8407F10803EF
:1041D0001846FEF7C1F83B69FB61FB694F4AA2FB39
:1041E00003239B0C7B84FA8C7B8C1343FB847B68BE
:1041F000FA8C9A807B681B889BB223F001039AB2E9
:104200007B681A800023FB843B681B68444A934206
:1042100015D83B681B685B00FA69B2FBF3F3BB84FB
:10422000BB8C032B01D80423BB84FA8CBB8C1343B7
:10423000FB847B8C01339AB27B681A8440E03B6834
:10424000DB884BF6FF72934209D13B681A6813462C
:104250005B001344FA69B2FBF3F3BB840EE03B68E6
:104260001A6813469B0013449A001344FA69B2FB80
:10427000F3F3BB84BB8C43F48043BB84BB8CC3F39C
:104280000B03002B03D1BB8C43F00103BB84BA8C1E
:10429000FB8C13439BB26FEA43436FEA5343FB84A7
:1042A0007B8C4FF4967202FB03F31E4A82FB0312CF
:1042B0009211DB17D31A9BB201339AB27B681A842E
:1042C0007B68FA8C9A837B681B889BB243F001035E
:1042D0009AB27B681A807B681B88FB84FB8C23F472
:1042E000816323F00203FB843B689A883B685B8907
:1042F00013439AB2FB8C1343FB847B68FA8C1A80BD
:104300003B689A893B681B8913439AB27B681A8180
:104310002837BD4680BD00BF00127A0083DE1B43F4
:10432000A0860100D34D621080B483B000AF7860E6
:104330000B46FB70FB78002B08D07B681B889BB278
:1043400043F001039AB27B681A8007E07B681B8800
:104350009BB223F001039AB27B681A800C37BD46EA
:104360005DF8047B704700BF80B483B000AF786015
:104370000B46FB70FB78002B08D07B681B889BB238
:1043800043F480739AB27B681A8007E07B681B88CD
:104390009BB223F480739AB27B681A800C37BD46B7
:1043A0005DF8047B704700BF80B483B000AF7860D5
:1043B0000B46FB70FB78002B08D07B681B889BB2F8
:1043C00043F400739AB27B681A8007E07B681B880D
:1043D0009BB223F400739AB27B681A800C37BD46F7
:1043E0005DF8047B704700BF80B483B000AF786095
:1043F0000B46FB70FB78002B08D07B681B889BB2B8
:1044000043F480639AB27B681A8007E07B681B885C
:104410009BB223F480639AB27B681A800C37BD4646
:104420005DF8047B704700BF80B483B000AF786054
:104430000B46FB70FB789AB27B681A820C37BD463C
:104440005DF8047B704700BF80B483B000AF786034
:104450007B681B8A9BB2DBB218460C37BD465DF801
:10446000047B704780B483B000AF78600B46FB706C
:104470001346BB70BB78002B04D0FB7843F00103DC
:10448000FB7003E0FB7823F00103FB70FB789AB22A
:104490007B681A820C37BD465DF8047B704700BF0D
:1044A00080B487B000AF7860396000233B6100239F
:1044B000FB600023BB600023FB757B689B8A9BB27B
:1044C000FB607B681B8B9BB2BB60BB681B04BB6043
:1044D000FA68BB68134323F07F433B613A693B684A
:1044E0001A403B689A4202D10123FB7501E0002388
:1044F000FB75FB7D18461C37BD465DF8047B704795
:1045000080B487B000AF786039600023FB7500236A
:104510003B610023FB607B68FB603B681B0F3B61DA
:104520003B6823F07F433B603B69002B03D0FB6873
:104530001433FB6005E03B681B0C3B60FB681833E1
:10454000FB60FB681A683B681340002B02D0012314
:10455000FB7501E00023FB75FB7D18461C37BD464B
:104560005DF8047B704700BF80B588B000AF78600D
:1045700000237B61FEF70EFD3E4B1B68002B04D130
:1045800000F0B8F83B4B01221A607B68002B0ED07C
:1045900008231A467B6813447B607B6803F007039B
:1045A000002B04D07B6823F0070308337B607B6813
:1045B000002B57D07B6842F6F772934252D82E4BAD
:1045C000BB612D4B1B68FB6104E0FB69BB61FB69B0
:1045D0001B68FB61FB695A687B689A4203D2FB69DE
:1045E0001B68002BF1D1FB69244A93423AD0BB6986
:1045F0001B68082213447B61FB691A68BB691A6057
:10460000FB695A687B68D31A08225200934222D968
:10461000FA697B681344FB60FB695A687B68D21AAD
:10462000FB685A60FB697A685A60FB685B68BB602C
:10463000114B3B6102E03B691B683B613B691B68B6
:104640005A68BB689A42F6D33B691A68FB681A60DD
:104650003B69FA681A600A4B1A68FB695B68D31AEF
:10466000074A1360FEF7A4FC7B6918462037BD4655
:1046700080BD00BF0C360020FC3500200436002031
:104680008C00002080B586B000AF78607B683B610D
:104690007B68002B27D008235B423A6913443B61B7
:1046A0003B69FB60FEF776FCFB685B68BB600F4B09
:1046B0007B6102E07B691B687B617B691B685A68D0
:1046C000BB689A42F6D37B691A68FB681A607B69FB
:1046D000FA681A60FB685A68054B1B681344044A61
:1046E0001360FEF765FC1837BD4680BDFC35002021
:1046F0008C00002080B483B000AF0F4B23F0070381
:104700007B600E4A7B6813600C4B00225A600C4B96
:1047100042F6F8725A600A4B00221A607B683B60CE
:104720003B6842F6F8725A603B68054A1A600C37DB
:10473000BD465DF8047B704704060020FC35002070
:1047400004360020844641EA000313F0030349D1F4
:10475000403A23D30B6803604B6843608B688360E7
:10476000CB68C3600B6903614B6943618B698361EB
:10477000CB69C3610B6A03624B6A43628B6A8362D3
:10478000CB6AC3620B6B03634B6B43638B6B8363BB
:10479000CB6BC36340304031403ADBD230320BD375
:1047A0000B6803604B6843608B688360CB68C360B1
:1047B00010301031103AF3D20C3205D351F8043BCB
:1047C00040F8043B043AF9D2043208D0D2071CBFA7
:1047D00011F8013B00F8013B01D30B8803806046D0
:1047E000704700BF082A13D38B07B1D010F0030322
:1047F000AED0C3F10403D21ADB071CBF11F8013B92
:1048000000F8013BA4D331F8023B20F8023B9FE7BC
:10481000043AD9D3013A11F8013B00F8013BF9D22F
:104820000B7803704B7843708B78837060467047C9
:1048300070B4840746D0541E002A41D0CDB203463E
:1048400002E0621EE4B3144603F8015B9A07F8D154
:10485000032C2ED9CDB245EA05250F2C45EA054596
:1048600019D9264603F11002103E0F2E42F8105CB3
:1048700042F80C5C42F8085C42F8045C02F1100259
:10488000F2D8A4F1100222F00F0204F00F0410324B
:10489000032C13440DD91E462246043A032A46F837
:1048A000045BFAD8221F22F003020432134404F0FE
:1048B00003042CB1C9B21C4403F8011BA342FBD171
:1048C00070BC704714460346C2E700BF4D616320C9
:1048D000616464726573733A20253032783A25300A
:1048E00032783A253032783A253032783A253032EB
:1048F000783A253032780A0D0000000049502061D6
:10490000646472657373203A2025642E25642E2515
:10491000642E25640A0D0000534D204D61736B0910
:104920002020203A2025642E25642E25642E25641F
:104930000A0D000047617465207761792020203AD4
:104940002025642E25642E25642E25640A0D000082
:10495000444E5320536572766572203A2025642EAA
:1049600025642E25642E25640A0D000055534152FE
:104970005420696E697469616C697A65642E0A0DE8
:104980000000000049324320696E697469616C69F6
:104990007A65642E0A0D0000573535303020686185
:1049A00072647761726520696E74657266616365B1
:1049B00020696E697469616C697A65642E0A0D00FC
:1049C000573535303020494320696E697469616C10
:1049D000697A65642E0A0D004F6E655365636F6ECC
:1049E0006400000045746865726E6574546F444DD0
:1049F00058000000444D58353132000025303264F3
:104A0000483A253032644D3A25303264530D0A005D
:104A1000737464696F2E633A20696E6372656173A3
:104A200065204D41585F535452494E475F53495A90
:104A3000450A0D0049444C4500000000573535300B
:104A40003020696E697469616C697A656420666199
:104A5000696C2E0D00000000556E6B6E6F776E2036
:104A6000504859206C696E6B207374617475732E95
:104A70000D00000002020202020202020202020211
:084A80000202020243000000E3
:104A880000C0000000A24A0400000000000000006E
:104A98000102030406070809000000000000DE62A6
:104AA800ADF9FFFFFFC0DE62ADFEA87E3F01010049
:104AB80001025735353030003D130008491300080E
:104AC80055130008611300086D13000889130008C6
:104AD80000000000000000000000000001020304C4
:104AE8000102030406070809020406084D2A000803
:104AF800812A0008A92A0008CD2A0008112B0008DD
:104B0800092D000800000000AAAAAAAAF82F000090
:104B1800000000007C030020E40300204C04002077
:104B2800000000000000000000000000000000007D
:104B3800000000000000000000000000000000006D
:104B480000000000844A0008000000000000000087
:104B5800000000000000000000000000000000004D
:104B6800000000000000000000000000000000003D
:104B7800000000000000000000000000000000002D
:104B8800000000000000000000000000000000001D
:104B9800000000000000000000000000000000000D
:104BA80000000000000000000000000000000000FD
:104BB80000000000000000000100000000000000EC
:104BC8000E33CDAB34126DE6ECDE05000B000000B1
:104BD80000000000000000000000000000000000CD
:104BE80000000000000000000000000000000000BD
:104BF80000000000000000000000000000000000AD
:104C0800000000000000000000000000000000009C
:0C4F3800000000000000000090000020BD
:0400000508000000EF
:00000001FF
